{
	"data": {
		"bytecode": {
			"linkReferences": {},
			"object": "6080604052348015600e575f5ffd5b506107f78061001c5f395ff3fe608060405234801561000f575f5ffd5b5060043610610055575f3560e01c80631b8f5d50146100595780632684f863146100775780634f2be91f14610095578063b5914ec1146100b3578063f9fa48c3146100d1575b5f5ffd5b6100616100ef565b60405161006e9190610470565b60405180910390f35b61007f610112565b60405161008c91906104f9565b60405180910390f35b61009d610185565b6040516100aa9190610470565b60405180910390f35b6100bb6101a8565b6040516100c89190610470565b60405180910390f35b6100d96101cb565b6040516100e69190610470565b60405180910390f35b5f5f600e90505f600290505f81836101079190610546565b905080935050505090565b60605f61011d6101cb565b90505f6103e88261012e91906105b4565b90505f6103e88361013f91906105e4565b90505f61014b8361023d565b90505f6101578361023d565b9050818160405160200161016c929190610698565b6040516020818303038152906040529550505050505090565b5f5f600e90505f600290505f818361019d91906106c6565b905080935050505090565b5f5f600e90505f600290505f81836101c091906106f9565b905080935050505090565b5f5f600e90505f600390505f8103610218576040517f08c379a000000000000000000000000000000000000000000000000000000000815260040161020f90610776565b60405180910390fd5b5f816103e8846102289190610546565b61023291906105b4565b905080935050505090565b60605f600161024b84610307565b0190505f8167ffffffffffffffff81111561026957610268610794565b5b6040519080825280601f01601f19166020018201604052801561029b5781602001600182028036833780820191505090505b5090505f82602001820190505b6001156102fc578080600190039150507f3031323334353637383961626364656600000000000000000000000000000000600a86061a8153600a85816102f1576102f0610587565b5b0494505f85036102a8575b819350505050919050565b5f5f5f90507a184f03e93ff9f4daa797ed6e38ed64bf6a1f0100000000000000008310610363577a184f03e93ff9f4daa797ed6e38ed64bf6a1f010000000000000000838161035957610358610587565b5b0492506040810190505b6d04ee2d6d415b85acef810000000083106103a0576d04ee2d6d415b85acef8100000000838161039657610395610587565b5b0492506020810190505b662386f26fc1000083106103cf57662386f26fc1000083816103c5576103c4610587565b5b0492506010810190505b6305f5e10083106103f8576305f5e10083816103ee576103ed610587565b5b0492506008810190505b612710831061041d57612710838161041357610412610587565b5b0492506004810190505b60648310610440576064838161043657610435610587565b5b0492506002810190505b600a831061044f576001810190505b80915050919050565b5f819050919050565b61046a81610458565b82525050565b5f6020820190506104835f830184610461565b92915050565b5f81519050919050565b5f82825260208201905092915050565b8281835e5f83830152505050565b5f601f19601f8301169050919050565b5f6104cb82610489565b6104d58185610493565b93506104e58185602086016104a3565b6104ee816104b1565b840191505092915050565b5f6020820190508181035f83015261051181846104c1565b905092915050565b7f4e487b71000000000000000000000000000000000000000000000000000000005f52601160045260245ffd5b5f61055082610458565b915061055b83610458565b925082820261056981610458565b915082820484148315176105805761057f610519565b5b5092915050565b7f4e487b71000000000000000000000000000000000000000000000000000000005f52601260045260245ffd5b5f6105be82610458565b91506105c983610458565b9250826105d9576105d8610587565b5b828204905092915050565b5f6105ee82610458565b91506105f983610458565b92508261060957610608610587565b5b828206905092915050565b5f81905092915050565b5f61062882610489565b6106328185610614565b93506106428185602086016104a3565b80840191505092915050565b7f2e000000000000000000000000000000000000000000000000000000000000005f82015250565b5f610682600183610614565b915061068d8261064e565b600182019050919050565b5f6106a3828561061e565b91506106ae82610676565b91506106ba828461061e565b91508190509392505050565b5f6106d082610458565b91506106db83610458565b92508282019050808211156106f3576106f2610519565b5b92915050565b5f61070382610458565b915061070e83610458565b925082820390508181111561072657610725610519565b5b92915050565b7f446976696465206279205a65726f0000000000000000000000000000000000005f82015250565b5f610760600e83610493565b915061076b8261072c565b602082019050919050565b5f6020820190508181035f83015261078d81610754565b9050919050565b7f4e487b71000000000000000000000000000000000000000000000000000000005f52604160045260245ffdfea26469706673582212201c2e506a3202fb39f642dcdf2683f2d012dcaa88cf88a3c1fa117c386e17aadd64736f6c634300081c0033",
			"opcodes": "PUSH1 0x80 PUSH1 0x40 MSTORE CALLVALUE DUP1 ISZERO PUSH1 0xE JUMPI PUSH0 PUSH0 REVERT JUMPDEST POP PUSH2 0x7F7 DUP1 PUSH2 0x1C PUSH0 CODECOPY PUSH0 RETURN INVALID PUSH1 0x80 PUSH1 0x40 MSTORE CALLVALUE DUP1 ISZERO PUSH2 0xF JUMPI PUSH0 PUSH0 REVERT JUMPDEST POP PUSH1 0x4 CALLDATASIZE LT PUSH2 0x55 JUMPI PUSH0 CALLDATALOAD PUSH1 0xE0 SHR DUP1 PUSH4 0x1B8F5D50 EQ PUSH2 0x59 JUMPI DUP1 PUSH4 0x2684F863 EQ PUSH2 0x77 JUMPI DUP1 PUSH4 0x4F2BE91F EQ PUSH2 0x95 JUMPI DUP1 PUSH4 0xB5914EC1 EQ PUSH2 0xB3 JUMPI DUP1 PUSH4 0xF9FA48C3 EQ PUSH2 0xD1 JUMPI JUMPDEST PUSH0 PUSH0 REVERT JUMPDEST PUSH2 0x61 PUSH2 0xEF JUMP JUMPDEST PUSH1 0x40 MLOAD PUSH2 0x6E SWAP2 SWAP1 PUSH2 0x470 JUMP JUMPDEST PUSH1 0x40 MLOAD DUP1 SWAP2 SUB SWAP1 RETURN JUMPDEST PUSH2 0x7F PUSH2 0x112 JUMP JUMPDEST PUSH1 0x40 MLOAD PUSH2 0x8C SWAP2 SWAP1 PUSH2 0x4F9 JUMP JUMPDEST PUSH1 0x40 MLOAD DUP1 SWAP2 SUB SWAP1 RETURN JUMPDEST PUSH2 0x9D PUSH2 0x185 JUMP JUMPDEST PUSH1 0x40 MLOAD PUSH2 0xAA SWAP2 SWAP1 PUSH2 0x470 JUMP JUMPDEST PUSH1 0x40 MLOAD DUP1 SWAP2 SUB SWAP1 RETURN JUMPDEST PUSH2 0xBB PUSH2 0x1A8 JUMP JUMPDEST PUSH1 0x40 MLOAD PUSH2 0xC8 SWAP2 SWAP1 PUSH2 0x470 JUMP JUMPDEST PUSH1 0x40 MLOAD DUP1 SWAP2 SUB SWAP1 RETURN JUMPDEST PUSH2 0xD9 PUSH2 0x1CB JUMP JUMPDEST PUSH1 0x40 MLOAD PUSH2 0xE6 SWAP2 SWAP1 PUSH2 0x470 JUMP JUMPDEST PUSH1 0x40 MLOAD DUP1 SWAP2 SUB SWAP1 RETURN JUMPDEST PUSH0 PUSH0 PUSH1 0xE SWAP1 POP PUSH0 PUSH1 0x2 SWAP1 POP PUSH0 DUP2 DUP4 PUSH2 0x107 SWAP2 SWAP1 PUSH2 0x546 JUMP JUMPDEST SWAP1 POP DUP1 SWAP4 POP POP POP POP SWAP1 JUMP JUMPDEST PUSH1 0x60 PUSH0 PUSH2 0x11D PUSH2 0x1CB JUMP JUMPDEST SWAP1 POP PUSH0 PUSH2 0x3E8 DUP3 PUSH2 0x12E SWAP2 SWAP1 PUSH2 0x5B4 JUMP JUMPDEST SWAP1 POP PUSH0 PUSH2 0x3E8 DUP4 PUSH2 0x13F SWAP2 SWAP1 PUSH2 0x5E4 JUMP JUMPDEST SWAP1 POP PUSH0 PUSH2 0x14B DUP4 PUSH2 0x23D JUMP JUMPDEST SWAP1 POP PUSH0 PUSH2 0x157 DUP4 PUSH2 0x23D JUMP JUMPDEST SWAP1 POP DUP2 DUP2 PUSH1 0x40 MLOAD PUSH1 0x20 ADD PUSH2 0x16C SWAP3 SWAP2 SWAP1 PUSH2 0x698 JUMP JUMPDEST PUSH1 0x40 MLOAD PUSH1 0x20 DUP2 DUP4 SUB SUB DUP2 MSTORE SWAP1 PUSH1 0x40 MSTORE SWAP6 POP POP POP POP POP POP SWAP1 JUMP JUMPDEST PUSH0 PUSH0 PUSH1 0xE SWAP1 POP PUSH0 PUSH1 0x2 SWAP1 POP PUSH0 DUP2 DUP4 PUSH2 0x19D SWAP2 SWAP1 PUSH2 0x6C6 JUMP JUMPDEST SWAP1 POP DUP1 SWAP4 POP POP POP POP SWAP1 JUMP JUMPDEST PUSH0 PUSH0 PUSH1 0xE SWAP1 POP PUSH0 PUSH1 0x2 SWAP1 POP PUSH0 DUP2 DUP4 PUSH2 0x1C0 SWAP2 SWAP1 PUSH2 0x6F9 JUMP JUMPDEST SWAP1 POP DUP1 SWAP4 POP POP POP POP SWAP1 JUMP JUMPDEST PUSH0 PUSH0 PUSH1 0xE SWAP1 POP PUSH0 PUSH1 0x3 SWAP1 POP PUSH0 DUP2 SUB PUSH2 0x218 JUMPI PUSH1 0x40 MLOAD PUSH32 0x8C379A000000000000000000000000000000000000000000000000000000000 DUP2 MSTORE PUSH1 0x4 ADD PUSH2 0x20F SWAP1 PUSH2 0x776 JUMP JUMPDEST PUSH1 0x40 MLOAD DUP1 SWAP2 SUB SWAP1 REVERT JUMPDEST PUSH0 DUP2 PUSH2 0x3E8 DUP5 PUSH2 0x228 SWAP2 SWAP1 PUSH2 0x546 JUMP JUMPDEST PUSH2 0x232 SWAP2 SWAP1 PUSH2 0x5B4 JUMP JUMPDEST SWAP1 POP DUP1 SWAP4 POP POP POP POP SWAP1 JUMP JUMPDEST PUSH1 0x60 PUSH0 PUSH1 0x1 PUSH2 0x24B DUP5 PUSH2 0x307 JUMP JUMPDEST ADD SWAP1 POP PUSH0 DUP2 PUSH8 0xFFFFFFFFFFFFFFFF DUP2 GT ISZERO PUSH2 0x269 JUMPI PUSH2 0x268 PUSH2 0x794 JUMP JUMPDEST JUMPDEST PUSH1 0x40 MLOAD SWAP1 DUP1 DUP3 MSTORE DUP1 PUSH1 0x1F ADD PUSH1 0x1F NOT AND PUSH1 0x20 ADD DUP3 ADD PUSH1 0x40 MSTORE DUP1 ISZERO PUSH2 0x29B JUMPI DUP2 PUSH1 0x20 ADD PUSH1 0x1 DUP3 MUL DUP1 CALLDATASIZE DUP4 CALLDATACOPY DUP1 DUP3 ADD SWAP2 POP POP SWAP1 POP JUMPDEST POP SWAP1 POP PUSH0 DUP3 PUSH1 0x20 ADD DUP3 ADD SWAP1 POP JUMPDEST PUSH1 0x1 ISZERO PUSH2 0x2FC JUMPI DUP1 DUP1 PUSH1 0x1 SWAP1 SUB SWAP2 POP POP PUSH32 0x3031323334353637383961626364656600000000000000000000000000000000 PUSH1 0xA DUP7 MOD BYTE DUP2 MSTORE8 PUSH1 0xA DUP6 DUP2 PUSH2 0x2F1 JUMPI PUSH2 0x2F0 PUSH2 0x587 JUMP JUMPDEST JUMPDEST DIV SWAP5 POP PUSH0 DUP6 SUB PUSH2 0x2A8 JUMPI JUMPDEST DUP2 SWAP4 POP POP POP POP SWAP2 SWAP1 POP JUMP JUMPDEST PUSH0 PUSH0 PUSH0 SWAP1 POP PUSH27 0x184F03E93FF9F4DAA797ED6E38ED64BF6A1F010000000000000000 DUP4 LT PUSH2 0x363 JUMPI PUSH27 0x184F03E93FF9F4DAA797ED6E38ED64BF6A1F010000000000000000 DUP4 DUP2 PUSH2 0x359 JUMPI PUSH2 0x358 PUSH2 0x587 JUMP JUMPDEST JUMPDEST DIV SWAP3 POP PUSH1 0x40 DUP2 ADD SWAP1 POP JUMPDEST PUSH14 0x4EE2D6D415B85ACEF8100000000 DUP4 LT PUSH2 0x3A0 JUMPI PUSH14 0x4EE2D6D415B85ACEF8100000000 DUP4 DUP2 PUSH2 0x396 JUMPI PUSH2 0x395 PUSH2 0x587 JUMP JUMPDEST JUMPDEST DIV SWAP3 POP PUSH1 0x20 DUP2 ADD SWAP1 POP JUMPDEST PUSH7 0x2386F26FC10000 DUP4 LT PUSH2 0x3CF JUMPI PUSH7 0x2386F26FC10000 DUP4 DUP2 PUSH2 0x3C5 JUMPI PUSH2 0x3C4 PUSH2 0x587 JUMP JUMPDEST JUMPDEST DIV SWAP3 POP PUSH1 0x10 DUP2 ADD SWAP1 POP JUMPDEST PUSH4 0x5F5E100 DUP4 LT PUSH2 0x3F8 JUMPI PUSH4 0x5F5E100 DUP4 DUP2 PUSH2 0x3EE JUMPI PUSH2 0x3ED PUSH2 0x587 JUMP JUMPDEST JUMPDEST DIV SWAP3 POP PUSH1 0x8 DUP2 ADD SWAP1 POP JUMPDEST PUSH2 0x2710 DUP4 LT PUSH2 0x41D JUMPI PUSH2 0x2710 DUP4 DUP2 PUSH2 0x413 JUMPI PUSH2 0x412 PUSH2 0x587 JUMP JUMPDEST JUMPDEST DIV SWAP3 POP PUSH1 0x4 DUP2 ADD SWAP1 POP JUMPDEST PUSH1 0x64 DUP4 LT PUSH2 0x440 JUMPI PUSH1 0x64 DUP4 DUP2 PUSH2 0x436 JUMPI PUSH2 0x435 PUSH2 0x587 JUMP JUMPDEST JUMPDEST DIV SWAP3 POP PUSH1 0x2 DUP2 ADD SWAP1 POP JUMPDEST PUSH1 0xA DUP4 LT PUSH2 0x44F JUMPI PUSH1 0x1 DUP2 ADD SWAP1 POP JUMPDEST DUP1 SWAP2 POP POP SWAP2 SWAP1 POP JUMP JUMPDEST PUSH0 DUP2 SWAP1 POP SWAP2 SWAP1 POP JUMP JUMPDEST PUSH2 0x46A DUP2 PUSH2 0x458 JUMP JUMPDEST DUP3 MSTORE POP POP JUMP JUMPDEST PUSH0 PUSH1 0x20 DUP3 ADD SWAP1 POP PUSH2 0x483 PUSH0 DUP4 ADD DUP5 PUSH2 0x461 JUMP JUMPDEST SWAP3 SWAP2 POP POP JUMP JUMPDEST PUSH0 DUP2 MLOAD SWAP1 POP SWAP2 SWAP1 POP JUMP JUMPDEST PUSH0 DUP3 DUP3 MSTORE PUSH1 0x20 DUP3 ADD SWAP1 POP SWAP3 SWAP2 POP POP JUMP JUMPDEST DUP3 DUP2 DUP4 MCOPY PUSH0 DUP4 DUP4 ADD MSTORE POP POP POP JUMP JUMPDEST PUSH0 PUSH1 0x1F NOT PUSH1 0x1F DUP4 ADD AND SWAP1 POP SWAP2 SWAP1 POP JUMP JUMPDEST PUSH0 PUSH2 0x4CB DUP3 PUSH2 0x489 JUMP JUMPDEST PUSH2 0x4D5 DUP2 DUP6 PUSH2 0x493 JUMP JUMPDEST SWAP4 POP PUSH2 0x4E5 DUP2 DUP6 PUSH1 0x20 DUP7 ADD PUSH2 0x4A3 JUMP JUMPDEST PUSH2 0x4EE DUP2 PUSH2 0x4B1 JUMP JUMPDEST DUP5 ADD SWAP2 POP POP SWAP3 SWAP2 POP POP JUMP JUMPDEST PUSH0 PUSH1 0x20 DUP3 ADD SWAP1 POP DUP2 DUP2 SUB PUSH0 DUP4 ADD MSTORE PUSH2 0x511 DUP2 DUP5 PUSH2 0x4C1 JUMP JUMPDEST SWAP1 POP SWAP3 SWAP2 POP POP JUMP JUMPDEST PUSH32 0x4E487B7100000000000000000000000000000000000000000000000000000000 PUSH0 MSTORE PUSH1 0x11 PUSH1 0x4 MSTORE PUSH1 0x24 PUSH0 REVERT JUMPDEST PUSH0 PUSH2 0x550 DUP3 PUSH2 0x458 JUMP JUMPDEST SWAP2 POP PUSH2 0x55B DUP4 PUSH2 0x458 JUMP JUMPDEST SWAP3 POP DUP3 DUP3 MUL PUSH2 0x569 DUP2 PUSH2 0x458 JUMP JUMPDEST SWAP2 POP DUP3 DUP3 DIV DUP5 EQ DUP4 ISZERO OR PUSH2 0x580 JUMPI PUSH2 0x57F PUSH2 0x519 JUMP JUMPDEST JUMPDEST POP SWAP3 SWAP2 POP POP JUMP JUMPDEST PUSH32 0x4E487B7100000000000000000000000000000000000000000000000000000000 PUSH0 MSTORE PUSH1 0x12 PUSH1 0x4 MSTORE PUSH1 0x24 PUSH0 REVERT JUMPDEST PUSH0 PUSH2 0x5BE DUP3 PUSH2 0x458 JUMP JUMPDEST SWAP2 POP PUSH2 0x5C9 DUP4 PUSH2 0x458 JUMP JUMPDEST SWAP3 POP DUP3 PUSH2 0x5D9 JUMPI PUSH2 0x5D8 PUSH2 0x587 JUMP JUMPDEST JUMPDEST DUP3 DUP3 DIV SWAP1 POP SWAP3 SWAP2 POP POP JUMP JUMPDEST PUSH0 PUSH2 0x5EE DUP3 PUSH2 0x458 JUMP JUMPDEST SWAP2 POP PUSH2 0x5F9 DUP4 PUSH2 0x458 JUMP JUMPDEST SWAP3 POP DUP3 PUSH2 0x609 JUMPI PUSH2 0x608 PUSH2 0x587 JUMP JUMPDEST JUMPDEST DUP3 DUP3 MOD SWAP1 POP SWAP3 SWAP2 POP POP JUMP JUMPDEST PUSH0 DUP2 SWAP1 POP SWAP3 SWAP2 POP POP JUMP JUMPDEST PUSH0 PUSH2 0x628 DUP3 PUSH2 0x489 JUMP JUMPDEST PUSH2 0x632 DUP2 DUP6 PUSH2 0x614 JUMP JUMPDEST SWAP4 POP PUSH2 0x642 DUP2 DUP6 PUSH1 0x20 DUP7 ADD PUSH2 0x4A3 JUMP JUMPDEST DUP1 DUP5 ADD SWAP2 POP POP SWAP3 SWAP2 POP POP JUMP JUMPDEST PUSH32 0x2E00000000000000000000000000000000000000000000000000000000000000 PUSH0 DUP3 ADD MSTORE POP JUMP JUMPDEST PUSH0 PUSH2 0x682 PUSH1 0x1 DUP4 PUSH2 0x614 JUMP JUMPDEST SWAP2 POP PUSH2 0x68D DUP3 PUSH2 0x64E JUMP JUMPDEST PUSH1 0x1 DUP3 ADD SWAP1 POP SWAP2 SWAP1 POP JUMP JUMPDEST PUSH0 PUSH2 0x6A3 DUP3 DUP6 PUSH2 0x61E JUMP JUMPDEST SWAP2 POP PUSH2 0x6AE DUP3 PUSH2 0x676 JUMP JUMPDEST SWAP2 POP PUSH2 0x6BA DUP3 DUP5 PUSH2 0x61E JUMP JUMPDEST SWAP2 POP DUP2 SWAP1 POP SWAP4 SWAP3 POP POP POP JUMP JUMPDEST PUSH0 PUSH2 0x6D0 DUP3 PUSH2 0x458 JUMP JUMPDEST SWAP2 POP PUSH2 0x6DB DUP4 PUSH2 0x458 JUMP JUMPDEST SWAP3 POP DUP3 DUP3 ADD SWAP1 POP DUP1 DUP3 GT ISZERO PUSH2 0x6F3 JUMPI PUSH2 0x6F2 PUSH2 0x519 JUMP JUMPDEST JUMPDEST SWAP3 SWAP2 POP POP JUMP JUMPDEST PUSH0 PUSH2 0x703 DUP3 PUSH2 0x458 JUMP JUMPDEST SWAP2 POP PUSH2 0x70E DUP4 PUSH2 0x458 JUMP JUMPDEST SWAP3 POP DUP3 DUP3 SUB SWAP1 POP DUP2 DUP2 GT ISZERO PUSH2 0x726 JUMPI PUSH2 0x725 PUSH2 0x519 JUMP JUMPDEST JUMPDEST SWAP3 SWAP2 POP POP JUMP JUMPDEST PUSH32 0x446976696465206279205A65726F000000000000000000000000000000000000 PUSH0 DUP3 ADD MSTORE POP JUMP JUMPDEST PUSH0 PUSH2 0x760 PUSH1 0xE DUP4 PUSH2 0x493 JUMP JUMPDEST SWAP2 POP PUSH2 0x76B DUP3 PUSH2 0x72C JUMP JUMPDEST PUSH1 0x20 DUP3 ADD SWAP1 POP SWAP2 SWAP1 POP JUMP JUMPDEST PUSH0 PUSH1 0x20 DUP3 ADD SWAP1 POP DUP2 DUP2 SUB PUSH0 DUP4 ADD MSTORE PUSH2 0x78D DUP2 PUSH2 0x754 JUMP JUMPDEST SWAP1 POP SWAP2 SWAP1 POP JUMP JUMPDEST PUSH32 0x4E487B7100000000000000000000000000000000000000000000000000000000 PUSH0 MSTORE PUSH1 0x41 PUSH1 0x4 MSTORE PUSH1 0x24 PUSH0 REVERT INVALID LOG2 PUSH5 0x6970667358 0x22 SLT KECCAK256 SHR 0x2E POP PUSH11 0x3202FB39F642DCDF2683F2 0xD0 SLT 0xDC 0xAA DUP9 0xCF DUP9 LOG3 0xC1 STATICCALL GT PUSH29 0x386E17AADD64736F6C634300081C003300000000000000000000000000 "
		},
		"gasEstimates": {
			"creation": {
				"codeDepositCost": "407800",
				"executionCost": "441",
				"totalCost": "408241"
			},
			"external": {
				"add()": "infinite",
				"div()": "infinite",
				"getDivResult()": "infinite",
				"multi()": "infinite",
				"subs()": "infinite"
			}
		},
		"methodIdentifiers": {
			"add()": "4f2be91f",
			"div()": "f9fa48c3",
			"getDivResult()": "2684f863",
			"multi()": "1b8f5d50",
			"subs()": "b5914ec1"
		}
	},
	"abi": [
		{
			"inputs": [],
			"stateMutability": "nonpayable",
			"type": "constructor"
		},
		{
			"inputs": [],
			"name": "add",
			"outputs": [
				{
					"internalType": "uint256",
					"name": "",
					"type": "uint256"
				}
			],
			"stateMutability": "pure",
			"type": "function"
		},
		{
			"inputs": [],
			"name": "div",
			"outputs": [
				{
					"internalType": "uint256",
					"name": "",
					"type": "uint256"
				}
			],
			"stateMutability": "pure",
			"type": "function"
		},
		{
			"inputs": [],
			"name": "getDivResult",
			"outputs": [
				{
					"internalType": "string",
					"name": "",
					"type": "string"
				}
			],
			"stateMutability": "pure",
			"type": "function"
		},
		{
			"inputs": [],
			"name": "multi",
			"outputs": [
				{
					"internalType": "uint256",
					"name": "",
					"type": "uint256"
				}
			],
			"stateMutability": "pure",
			"type": "function"
		},
		{
			"inputs": [],
			"name": "subs",
			"outputs": [
				{
					"internalType": "uint256",
					"name": "",
					"type": "uint256"
				}
			],
			"stateMutability": "pure",
			"type": "function"
		}
	]
}